{
  "contractName": "shortSeller",
  "abi": [
    {
      "inputs": [],
      "name": "USDC",
      "outputs": [
        {
          "internalType": "address",
          "name": "",
          "type": "address"
        }
      ],
      "stateMutability": "view",
      "type": "function",
      "constant": true
    },
    {
      "inputs": [],
      "name": "WETH",
      "outputs": [
        {
          "internalType": "address",
          "name": "",
          "type": "address"
        }
      ],
      "stateMutability": "view",
      "type": "function",
      "constant": true
    },
    {
      "stateMutability": "payable",
      "type": "receive",
      "payable": true
    },
    {
      "inputs": [
        {
          "internalType": "uint256",
          "name": "_amount",
          "type": "uint256"
        },
        {
          "internalType": "bytes",
          "name": "_oneInchCallData",
          "type": "bytes"
        }
      ],
      "name": "oneInchWETHUSDCSwap",
      "outputs": [],
      "stateMutability": "nonpayable",
      "type": "function"
    },
    {
      "inputs": [
        {
          "internalType": "uint256",
          "name": "_amount",
          "type": "uint256"
        },
        {
          "internalType": "bytes",
          "name": "_oneInchCallData",
          "type": "bytes"
        }
      ],
      "name": "oneInchUSDCWETHSwap",
      "outputs": [],
      "stateMutability": "nonpayable",
      "type": "function"
    },
    {
      "inputs": [
        {
          "internalType": "uint256",
          "name": "_amount",
          "type": "uint256"
        }
      ],
      "name": "getWeth",
      "outputs": [],
      "stateMutability": "nonpayable",
      "type": "function"
    },
    {
      "inputs": [
        {
          "internalType": "address",
          "name": "delegator",
          "type": "address"
        },
        {
          "internalType": "uint256",
          "name": "amount",
          "type": "uint256"
        },
        {
          "internalType": "address",
          "name": "asset",
          "type": "address"
        }
      ],
      "name": "borrow",
      "outputs": [],
      "stateMutability": "nonpayable",
      "type": "function"
    },
    {
      "inputs": [
        {
          "internalType": "uint256",
          "name": "amount",
          "type": "uint256"
        },
        {
          "internalType": "address",
          "name": "asset",
          "type": "address"
        },
        {
          "internalType": "address",
          "name": "delegator",
          "type": "address"
        }
      ],
      "name": "repayBorrower",
      "outputs": [],
      "stateMutability": "nonpayable",
      "type": "function"
    },
    {
      "inputs": [
        {
          "internalType": "address",
          "name": "_tokenAddress",
          "type": "address"
        },
        {
          "internalType": "address",
          "name": "Owner",
          "type": "address"
        }
      ],
      "name": "withdrawToken",
      "outputs": [],
      "stateMutability": "nonpayable",
      "type": "function"
    },
    {
      "inputs": [
        {
          "internalType": "address",
          "name": "Owner",
          "type": "address"
        }
      ],
      "name": "withdrawEther",
      "outputs": [],
      "stateMutability": "nonpayable",
      "type": "function"
    }
  ],
  "bytecode": "0x6080604052600080546001600160a01b031990811673111111125434b319222cdbf8c261674adb56f3ae1790915560018054821673c02aaa39b223fe8d0a0e5c4f27ead9083c756cc21790556002805490911673a0b86991c6218b36c1d19d4a2e9eb0ce3606eb4817905534801561007657600080fd5b50610950806100866000396000f3fe60806040526004361061008a5760003560e01c80636c665a55116100595780636c665a55146101f857806389a302711461023b578063ad5c46481461026c578063af933b5714610281578063ca76b465146102b457610091565b80631234d74314610096578063377b5d59146100c25780633aeac4e114610103578063557a08021461013e57610091565b3661009157005b600080fd5b3480156100a257600080fd5b506100c0600480360360208110156100b957600080fd5b503561036e565b005b3480156100ce57600080fd5b506100c0600480360360608110156100e557600080fd5b508035906001600160a01b03602082013581169160400135166103da565b34801561010f57600080fd5b506100c06004803603604081101561012657600080fd5b506001600160a01b038135811691602001351661050c565b34801561014a57600080fd5b506100c06004803603604081101561016157600080fd5b8135919081019060408101602082013564010000000081111561018357600080fd5b82018360208201111561019557600080fd5b803590602001918460018302840111640100000000831117156101b757600080fd5b91908080601f0160208091040260200160405190810160405280939291908181526020018383808284376000920191909152509295506105dd945050505050565b34801561020457600080fd5b506100c06004803603606081101561021b57600080fd5b506001600160a01b03813581169160208101359160409091013516610605565b34801561024757600080fd5b50610250610699565b604080516001600160a01b039092168252519081900360200190f35b34801561027857600080fd5b506102506106a8565b34801561028d57600080fd5b506100c0600480360360208110156102a457600080fd5b50356001600160a01b03166106b7565b3480156102c057600080fd5b506100c0600480360360408110156102d757600080fd5b813591908101906040810160208201356401000000008111156102f957600080fd5b82018360208201111561030b57600080fd5b8035906020019184600183028401116401000000008311171561032d57600080fd5b91908080601f0160208091040260200160405190810160405280939291908181526020018383808284376000920191909152509295506106f2945050505050565b600160009054906101000a90046001600160a01b03166001600160a01b031663d0e30db0826040518263ffffffff1660e01b81526004016000604051808303818588803b1580156103be57600080fd5b505af11580156103d2573d6000803e3d6000fd5b505050505050565b6040805163095ea7b360e01b8152737d2768de32b0b80b7a3454c06bdac94a69ddc7a960048201526024810185905290516001600160a01b0384169163095ea7b39160448083019260209291908290030181600087803b15801561043d57600080fd5b505af1158015610451573d6000803e3d6000fd5b505050506040513d602081101561046757600080fd5b50506040805163573ade8160e01b81526001600160a01b0384811660048301526024820186905260016044830152831660648201529051737d2768de32b0b80b7a3454c06bdac94a69ddc7a99163573ade819160848083019260209291908290030181600087803b1580156104db57600080fd5b505af11580156104ef573d6000803e3d6000fd5b505050506040513d602081101561050557600080fd5b5050505050565b6000826001600160a01b03166370a08231306040518263ffffffff1660e01b815260040180826001600160a01b0316815260200191505060206040518083038186803b15801561055b57600080fd5b505afa15801561056f573d6000803e3d6000fd5b505050506040513d602081101561058557600080fd5b50516040805163a9059cbb60e01b81526001600160a01b0385811660048301526024820184905291519293509085169163a9059cbb916044808201926020929091908290030181600087803b1580156104db57600080fd5b600154600254839183916105ff916001600160a01b0390811691168484610710565b50505050565b6040805163a415bcad60e01b81526001600160a01b038381166004830152602482018590526001604483015260006064830181905290861660848301529151737d2768de32b0b80b7a3454c06bdac94a69ddc7a99263a415bcad9260a4808201939182900301818387803b15801561067c57600080fd5b505af1158015610690573d6000803e3d6000fd5b50505050505050565b6002546001600160a01b031681565b6001546001600160a01b031681565b60405130908131906001600160a01b0384169082156108fc029083906000818181858888f193505050501580156105ff573d6000803e3d6000fd5b600254600154839183916105ff916001600160a01b03908116911684845b600080546040805163095ea7b360e01b81526001600160a01b03928316600482015260248101869052905187939284169263095ea7b392604480820193602093909283900390910190829087803b15801561076a57600080fd5b505af115801561077e573d6000803e3d6000fd5b505050506040513d602081101561079457600080fd5b50506000805460405184516001600160a01b039092169134918691819060208401908083835b602083106107d95780518252601f1990920191602091820191016107ba565b6001836020036101000a03801982511681845116808217855250505050505090500191505060006040518083038185875af1925050503d806000811461083b576040519150601f19603f3d011682016040523d82523d6000602084013e610840565b606091505b505090508061088f576040805162461bcd60e51b81526020600482015260166024820152750c525390d217d4d5d05417d0d0531317d1905253115160521b604482015290519081900360640190fd5b600080546040805163095ea7b360e01b81526001600160a01b0392831660048201526024810184905290519185169263095ea7b3926044808401936020939083900390910190829087803b1580156108e657600080fd5b505af11580156108fa573d6000803e3d6000fd5b505050506040513d602081101561091057600080fd5b505050505050505056fea2646970667358221220c0d72dcdd05c80345a255d084c91977fd44f5ececa43c80084b9443f2833b3ca64736f6c634300060c0033",
  "source": "pragma solidity ^0.6.12;\n\nimport {ILendingPool,IProtocolDataProvider, IStableDebtToken} from './Interfaces.sol';\n\ninterface IERC20 {\n    function totalSupply() external view returns (uint256);\n\n    function balanceOf(address account) external view returns (uint256);\n\n    function transfer(address recipient, uint256 amount) external returns (bool);\n\n    function allowance(address owner, address spender) external view returns (uint256);\n\n    function approve(address spender, uint256 amount) external returns (bool);\n\n    function transferFrom(address sender, address recipient, uint256 amount) external returns (bool);\n\n    event Transfer(address indexed from, address indexed to, uint256 value);\n    event Approval(address indexed owner, address indexed spender, uint256 value);\n}\n\n\ninterface IWETH {\n    function withdraw(uint256) external;\n    function deposit() external payable;\n}\n\n// SPDX-License-Identifier: MIT\n\ncontract shortSeller {\n     // Allow the contract to receive Ether\n    receive() external payable {}\n    // OneInch Config\n    address ONE_INCH_ADDRESS = 0x111111125434b319222CdBf8C261674aDB56F3ae;\n    address public WETH = 0xC02aaA39b223FE8D0A0e5C4F27eAD9083C756Cc2;\n    address public USDC = 0xA0b86991c6218b36c1d19D4a2e9Eb0cE3606eB48;\n    ILendingPool constant lendingPool = ILendingPool(address(0x7d2768dE32b0b80b7a3454c06BdAc94A69DDc7A9)); // Mainnet\n    IProtocolDataProvider constant dataProvider = IProtocolDataProvider(address(0x057835Ad21a177dbdd3090bB1CAE03EaCF78Fc6d)); // Mainnet\n    \nfunction oneInchWETHUSDCSwap(uint256 _amount, bytes memory _oneInchCallData) public {\n    uint256 amount = _amount;\n    bytes memory oneInchCallData = _oneInchCallData;\n    oneInchSwap(WETH,USDC,amount,oneInchCallData);\n}\n\nfunction oneInchUSDCWETHSwap(uint256 _amount, bytes memory _oneInchCallData) public {\n    uint256 amount = _amount;\n    bytes memory oneInchCallData = _oneInchCallData;\n    oneInchSwap(USDC,WETH,amount,oneInchCallData);\n}\n\nfunction oneInchSwap(address _from, address _to, uint256 _amount, bytes memory _oneInchCallData) internal {\n        // Setup contracts\n        IERC20 _fromIERC20 = IERC20(_from);\n        //uint256 _beforeBalance = IERC20(_to).balanceOf(address(this));\n        // Approve tokens\n        _fromIERC20.approve(ONE_INCH_ADDRESS, _amount);\n\n        // Swap tokens: give _from, get _to\n        (bool success,) = ONE_INCH_ADDRESS.call{value: msg.value}(_oneInchCallData);\n        require(success, '1INCH_SWAP_CALL_FAILED');\n\n        //uint256 _afterBalance = IERC20(_to).balanceOf(address(this));\n        // Reset approval\n        _fromIERC20.approve(ONE_INCH_ADDRESS, 0);\n    }\n\n   function getWeth(uint256 _amount) public {\n        IWETH(WETH).deposit{value: _amount}();\n    }\n\n    function borrow(address delegator, uint256 amount, address asset) public{\n      lendingPool.borrow(asset, amount,1,0, delegator);\n    }\n\n\n    function repayBorrower(uint256 amount, address asset, address delegator) public {\n        IERC20(asset).approve(address(lendingPool), amount);\n        lendingPool.repay(asset, amount, 1, delegator);\n    }\n    \n\n    // KEEP THIS FUNCTION IN CASE THE CONTRACT RECEIVES TOKENS!\n    function withdrawToken(address _tokenAddress, address Owner) public {\n        uint256 balance = IERC20(_tokenAddress).balanceOf(address(this));\n        IERC20(_tokenAddress).transfer(Owner, balance);\n    }\n\n    // KEEP THIS FUNCTION IN CASE THE CONTRACT KEEPS LEFTOVER ETHER!\n    function withdrawEther(address  Owner) public{\n        address self = address(this);\n        // workaround for a possible solidity bug\n        uint256 balance = self.balance;\n        payable(address(Owner)).transfer(balance);\n    }\n}",
  "sourcePath": "/Users/VijayL/Documents/Blockchain/MyProjects/MarketMake/v-cred_scaffold/packages/backend/contracts/shortSeller.sol",
  "compiler": {
    "name": "solc",
    "version": "0.6.12+commit.27d51765.Emscripten.clang"
  },
  "schemaVersion": "3.0.23",
  "updatedAt": "2021-02-08T20:53:37.214Z",
  "networkType": "ethereum",
  "devdoc": {
    "kind": "dev",
    "methods": {},
    "version": 1
  },
  "userdoc": {
    "kind": "user",
    "methods": {},
    "version": 1
  }
}