{
  "contractName": "marginContract",
  "abi": [
    {
      "inputs": [
        {
          "internalType": "address",
          "name": "asset",
          "type": "address"
        },
        {
          "internalType": "uint256",
          "name": "amount",
          "type": "uint256"
        }
      ],
      "name": "depositCollateral",
      "outputs": [],
      "stateMutability": "nonpayable",
      "type": "function"
    },
    {
      "inputs": [
        {
          "internalType": "address",
          "name": "borrower",
          "type": "address"
        },
        {
          "internalType": "uint256",
          "name": "amount",
          "type": "uint256"
        },
        {
          "internalType": "address",
          "name": "asset",
          "type": "address"
        }
      ],
      "name": "approveBorrower",
      "outputs": [],
      "stateMutability": "nonpayable",
      "type": "function"
    },
    {
      "inputs": [
        {
          "internalType": "address",
          "name": "asset",
          "type": "address"
        }
      ],
      "name": "withdrawCollateral",
      "outputs": [],
      "stateMutability": "nonpayable",
      "type": "function"
    },
    {
      "inputs": [
        {
          "internalType": "address",
          "name": "_tokenAddress",
          "type": "address"
        },
        {
          "internalType": "address",
          "name": "Owner",
          "type": "address"
        }
      ],
      "name": "withdrawToken",
      "outputs": [],
      "stateMutability": "nonpayable",
      "type": "function"
    }
  ],
  "bytecode": "0x608060405234801561001057600080fd5b506105d2806100206000396000f3fe608060405234801561001057600080fd5b506004361061004c5760003560e01c80630bdc85d5146100515780633aeac4e114610089578063928d300e146100b7578063a5d5db0c146100dd575b600080fd5b6100876004803603606081101561006757600080fd5b506001600160a01b03813581169160208101359160409091013516610109565b005b6100876004803603604081101561009f57600080fd5b506001600160a01b038135811691602001351661020e565b610087600480360360208110156100cd57600080fd5b50356001600160a01b0316610310565b610087600480360360408110156100f357600080fd5b506001600160a01b038135169060200135610484565b600073057835ad21a177dbdd3090bb1cae03eacf78fc6d6001600160a01b031663d2493b6c836040518263ffffffff1660e01b815260040180826001600160a01b0316815260200191505060606040518083038186803b15801561016c57600080fd5b505afa158015610180573d6000803e3d6000fd5b505050506040513d606081101561019657600080fd5b506020015160408051630c04a8a160e41b81526001600160a01b0387811660048301526024820187905291519293509083169163c04a8a109160448082019260009290919082900301818387803b1580156101f057600080fd5b505af1158015610204573d6000803e3d6000fd5b5050505050505050565b6000826001600160a01b03166370a08231306040518263ffffffff1660e01b815260040180826001600160a01b0316815260200191505060206040518083038186803b15801561025d57600080fd5b505afa158015610271573d6000803e3d6000fd5b505050506040513d602081101561028757600080fd5b50516040805163a9059cbb60e01b81526001600160a01b0385811660048301526024820184905291519293509085169163a9059cbb916044808201926020929091908290030181600087803b1580156102df57600080fd5b505af11580156102f3573d6000803e3d6000fd5b505050506040513d602081101561030957600080fd5b5050505050565b600073057835ad21a177dbdd3090bb1cae03eacf78fc6d6001600160a01b031663d2493b6c836040518263ffffffff1660e01b815260040180826001600160a01b0316815260200191505060606040518083038186803b15801561037357600080fd5b505afa158015610387573d6000803e3d6000fd5b505050506040513d606081101561039d57600080fd5b5051604080516370a0823160e01b815230600482015290519192506000916001600160a01b038416916370a08231916024808301926020929190829003018186803b1580156103eb57600080fd5b505afa1580156103ff573d6000803e3d6000fd5b505050506040513d602081101561041557600080fd5b505160408051631a4ca37b60e21b81526001600160a01b0386166004820152602481018390523060448201529051919250737d2768de32b0b80b7a3454c06bdac94a69ddc7a9916369328dec916064808201926020929091908290030181600087803b1580156102df57600080fd5b6040805163095ea7b360e01b8152737d2768de32b0b80b7a3454c06bdac94a69ddc7a960048201526024810183905290516001600160a01b0384169163095ea7b39160448083019260209291908290030181600087803b1580156104e757600080fd5b505af11580156104fb573d6000803e3d6000fd5b505050506040513d602081101561051157600080fd5b50506040805163e8eda9df60e01b81526001600160a01b0384166004820152602481018390523060448201526000606482018190529151737d2768de32b0b80b7a3454c06bdac94a69ddc7a99263e8eda9df926084808201939182900301818387803b15801561058057600080fd5b505af1158015610594573d6000803e3d6000fd5b50505050505056fea264697066735822122028c7920cb446f19807729cffa0007b7b78da5dad8a75c7cb34b98bdf59b28ae764736f6c634300060c0033",
  "source": "// SPDX-License-Identifier: MIT\npragma solidity ^0.6.12;\n\nimport { IERC20, ILendingPool, IProtocolDataProvider, IStableDebtToken } from './Interfaces.sol';\n\n\n\n// ERC20 Flashloan Example\ncontract marginContract {\n    \n    ILendingPool constant lendingPool = ILendingPool(address(0x7d2768dE32b0b80b7a3454c06BdAc94A69DDc7A9)); // Mainnet\n    IProtocolDataProvider constant dataProvider = IProtocolDataProvider(address(0x057835Ad21a177dbdd3090bB1CAE03EaCF78Fc6d)); // Mainnet\n\n    \n function depositCollateral(address asset, uint256 amount) public {\n   \n        IERC20(asset).approve(address(lendingPool), amount);\n        lendingPool.deposit(asset, amount, address(this), 0);\n    }\n\n    /**\n     * Approves the borrower to take an uncollaterised loan\n     * @param borrower The borrower of the funds (i.e. delgatee)\n     * @param amount The amount the borrower is allowed to borrow (i.e. their line of credit)\n     * @param asset The asset they are allowed to borrow\n     * \n     * Add permissions to this call, e.g. only the owner should be able to approve borrowers!\n     */\n    function approveBorrower(address borrower, uint256 amount, address asset) public {\n        (, address stableDebtTokenAddress,) = dataProvider.getReserveTokensAddresses(asset);\n        IStableDebtToken(stableDebtTokenAddress).approveDelegation(borrower, amount);\n    }\n    \n\n    /**\n     * Withdraw all of a collateral as the underlying asset, if no outstanding loans delegated\n     * @param asset The underlying asset to withdraw\n     * \n     *\n     */\n    function withdrawCollateral(address asset) public {\n        (address aTokenAddress,,) = dataProvider.getReserveTokensAddresses(asset);\n        uint256 assetBalance = IERC20(aTokenAddress).balanceOf(address(this));\n        lendingPool.withdraw(asset, assetBalance, address(this));\n    }\n\n    //withdraw token from the contract\n    function withdrawToken(address _tokenAddress, address Owner) public {\n        uint256 balance = IERC20(_tokenAddress).balanceOf(address(this));\n        IERC20(_tokenAddress).transfer(Owner, balance);\n    }\n\n}\n",
  "sourcePath": "/Users/VijayL/Documents/Blockchain/MyProjects/MarketMake/v-cred_scaffold/packages/backend/contracts/marginContract.sol",
  "compiler": {
    "name": "solc",
    "version": "0.6.12+commit.27d51765.Emscripten.clang"
  },
  "schemaVersion": "3.0.23",
  "updatedAt": "2021-02-08T20:53:37.210Z",
  "networkType": "ethereum",
  "devdoc": {
    "kind": "dev",
    "methods": {
      "approveBorrower(address,uint256,address)": {
        "params": {
          "amount": "The amount the borrower is allowed to borrow (i.e. their line of credit)",
          "asset": "The asset they are allowed to borrow  Add permissions to this call, e.g. only the owner should be able to approve borrowers!",
          "borrower": "The borrower of the funds (i.e. delgatee)"
        }
      },
      "withdrawCollateral(address)": {
        "params": {
          "asset": "The underlying asset to withdraw "
        }
      }
    },
    "version": 1
  },
  "userdoc": {
    "kind": "user",
    "methods": {
      "approveBorrower(address,uint256,address)": {
        "notice": "Approves the borrower to take an uncollaterised loan"
      },
      "withdrawCollateral(address)": {
        "notice": "Withdraw all of a collateral as the underlying asset, if no outstanding loans delegated"
      }
    },
    "version": 1
  }
}